{
  "contractName": "Ride",
  "abi": [
    {
      "inputs": [
        {
          "internalType": "address payable",
          "name": "_riderAddr",
          "type": "address"
        },
        {
          "internalType": "address payable",
          "name": "_driverAddr",
          "type": "address"
        },
        {
          "internalType": "string[]",
          "name": "_fromAddr",
          "type": "string[]"
        },
        {
          "internalType": "string[]",
          "name": "_toAddr",
          "type": "string[]"
        },
        {
          "internalType": "bytes32",
          "name": "_amount",
          "type": "bytes32"
        }
      ],
      "stateMutability": "nonpayable",
      "type": "constructor"
    },
    {
      "anonymous": false,
      "inputs": [
        {
          "indexed": true,
          "internalType": "address payable",
          "name": "_driverAddr",
          "type": "address"
        },
        {
          "indexed": true,
          "internalType": "address payable",
          "name": "_riderAddr",
          "type": "address"
        }
      ],
      "name": "UpdateConfirmationEvent",
      "type": "event"
    },
    {
      "inputs": [],
      "name": "getRideInfo",
      "outputs": [
        {
          "internalType": "address",
          "name": "",
          "type": "address"
        },
        {
          "internalType": "address",
          "name": "",
          "type": "address"
        },
        {
          "internalType": "string[]",
          "name": "",
          "type": "string[]"
        },
        {
          "internalType": "string[]",
          "name": "",
          "type": "string[]"
        },
        {
          "internalType": "bytes32",
          "name": "",
          "type": "bytes32"
        },
        {
          "internalType": "bool",
          "name": "",
          "type": "bool"
        },
        {
          "internalType": "bool",
          "name": "",
          "type": "bool"
        },
        {
          "internalType": "bool",
          "name": "",
          "type": "bool"
        }
      ],
      "stateMutability": "view",
      "type": "function"
    },
    {
      "inputs": [
        {
          "internalType": "address payable",
          "name": "_driverAddr",
          "type": "address"
        }
      ],
      "name": "updateDriverAddress",
      "outputs": [],
      "stateMutability": "nonpayable",
      "type": "function"
    },
    {
      "inputs": [
        {
          "internalType": "bool",
          "name": "_status",
          "type": "bool"
        }
      ],
      "name": "updateRiderConfirmation",
      "outputs": [],
      "stateMutability": "nonpayable",
      "type": "function"
    },
    {
      "inputs": [
        {
          "internalType": "bool",
          "name": "_status",
          "type": "bool"
        }
      ],
      "name": "updateDriverConfirmation",
      "outputs": [],
      "stateMutability": "nonpayable",
      "type": "function"
    },
    {
      "inputs": [
        {
          "internalType": "bool",
          "name": "_complete",
          "type": "bool"
        }
      ],
      "name": "updateRideComplete",
      "outputs": [],
      "stateMutability": "nonpayable",
      "type": "function"
    }
  ],
  "bytecode": "0x608060405234801562000010575f80fd5b506040516200126b3803806200126b833981810160405281019062000036919062000541565b845f806101000a81548173ffffffffffffffffffffffffffffffffffffffff021916908373ffffffffffffffffffffffffffffffffffffffff1602179055508360015f6101000a81548173ffffffffffffffffffffffffffffffffffffffff021916908373ffffffffffffffffffffffffffffffffffffffff1602179055508260029080519060200190620000cd92919062000146565b508160039080519060200190620000e692919062000146565b50806004819055505f60055f6101000a81548160ff0219169083151502179055505f600560016101000a81548160ff0219169083151502179055505f600560026101000a81548160ff02191690831515021790555050505050506200091e565b828054828255905f5260205f2090810192821562000191579160200282015b82811115620001905782518290816200017f91906200083a565b509160200191906001019062000165565b5b509050620001a09190620001a4565b5090565b5b80821115620001c7575f8181620001bd9190620001cb565b50600101620001a5565b5090565b508054620001d9906200063a565b5f825580601f10620001ec57506200020b565b601f0160209004905f5260205f20908101906200020a91906200020e565b5b50565b5b8082111562000227575f815f9055506001016200020f565b5090565b5f604051905090565b5f80fd5b5f80fd5b5f73ffffffffffffffffffffffffffffffffffffffff82169050919050565b5f62000267826200023c565b9050919050565b62000279816200025b565b811462000284575f80fd5b50565b5f8151905062000297816200026e565b92915050565b5f80fd5b5f601f19601f8301169050919050565b7f4e487b71000000000000000000000000000000000000000000000000000000005f52604160045260245ffd5b620002e982620002a1565b810181811067ffffffffffffffff821117156200030b576200030a620002b1565b5b80604052505050565b5f6200031f6200022b565b90506200032d8282620002de565b919050565b5f67ffffffffffffffff8211156200034f576200034e620002b1565b5b602082029050602081019050919050565b5f80fd5b5f80fd5b5f67ffffffffffffffff821115620003855762000384620002b1565b5b6200039082620002a1565b9050602081019050919050565b5f5b83811015620003bc5780820151818401526020810190506200039f565b5f8484015250505050565b5f620003dd620003d78462000368565b62000314565b905082815260208101848484011115620003fc57620003fb62000364565b5b620004098482856200039d565b509392505050565b5f82601f8301126200042857620004276200029d565b5b81516200043a848260208601620003c7565b91505092915050565b5f62000459620004538462000332565b62000314565b905080838252602082019050602084028301858111156200047f576200047e62000360565b5b835b81811015620004cd57805167ffffffffffffffff811115620004a857620004a76200029d565b5b808601620004b7898262000411565b8552602085019450505060208101905062000481565b5050509392505050565b5f82601f830112620004ee57620004ed6200029d565b5b81516200050084826020860162000443565b91505092915050565b5f819050919050565b6200051d8162000509565b811462000528575f80fd5b50565b5f815190506200053b8162000512565b92915050565b5f805f805f60a086880312156200055d576200055c62000234565b5b5f6200056c8882890162000287565b95505060206200057f8882890162000287565b945050604086015167ffffffffffffffff811115620005a357620005a262000238565b5b620005b188828901620004d7565b935050606086015167ffffffffffffffff811115620005d557620005d462000238565b5b620005e388828901620004d7565b9250506080620005f6888289016200052b565b9150509295509295909350565b5f81519050919050565b7f4e487b71000000000000000000000000000000000000000000000000000000005f52602260045260245ffd5b5f60028204905060018216806200065257607f821691505b6020821081036200066857620006676200060d565b5b50919050565b5f819050815f5260205f209050919050565b5f6020601f8301049050919050565b5f82821b905092915050565b5f60088302620006cc7fffffffffffffffffffffffffffffffffffffffffffffffffffffffffffffffff826200068f565b620006d886836200068f565b95508019841693508086168417925050509392505050565b5f819050919050565b5f819050919050565b5f620007226200071c6200071684620006f0565b620006f9565b620006f0565b9050919050565b5f819050919050565b6200073d8362000702565b620007556200074c8262000729565b8484546200069b565b825550505050565b5f90565b6200076b6200075d565b6200077881848462000732565b505050565b5b818110156200079f57620007935f8262000761565b6001810190506200077e565b5050565b601f821115620007ee57620007b8816200066e565b620007c38462000680565b81016020851015620007d3578190505b620007eb620007e28562000680565b8301826200077d565b50505b505050565b5f82821c905092915050565b5f620008105f1984600802620007f3565b1980831691505092915050565b5f6200082a8383620007ff565b9150826002028217905092915050565b620008458262000603565b67ffffffffffffffff811115620008615762000860620002b1565b5b6200086d82546200063a565b6200087a828285620007a3565b5f60209050601f831160018114620008b0575f84156200089b578287015190505b620008a785826200081d565b86555062000916565b601f198416620008c0866200066e565b5f5b82811015620008e957848901518255600182019150602085019450602081019050620008c2565b8683101562000909578489015162000905601f891682620007ff565b8355505b6001600288020188555050505b505050505050565b61093f806200092c5f395ff3fe608060405234801561000f575f80fd5b5060043610610055575f3560e01c806306ab2e0614610059578063114dba9c14610075578063415f3dc31461009a578063530cce55146100b657806381696320146100d2575b5f80fd5b610073600480360381019061006e919061056e565b6100ee565b005b61007d61015e565b604051610091989796959493929190610744565b60405180910390f35b6100b460048036038101906100af919061056e565b610395565b005b6100d060048036038101906100cb9190610809565b610407565b005b6100ec60048036038101906100e7919061056e565b6104c3565b005b80151560055f9054906101000a900460ff16151503610142576040517f08c379a00000000000000000000000000000000000000000000000000000000081526004016101399061088e565b60405180910390fd5b8060055f6101000a81548160ff02191690831515021790555050565b5f806060805f805f805f8054906101000a900473ffffffffffffffffffffffffffffffffffffffff1660015f9054906101000a900473ffffffffffffffffffffffffffffffffffffffff166002600360045460055f9054906101000a900460ff16600560019054906101000a900460ff16600560029054906101000a900460ff1685805480602002602001604051908101604052809291908181526020015f905b828210156102a7578382905f5260205f2001805461021c906108d9565b80601f0160208091040260200160405190810160405280929190818152602001828054610248906108d9565b80156102935780601f1061026a57610100808354040283529160200191610293565b820191905f5260205f20905b81548152906001019060200180831161027657829003601f168201915b5050505050815260200190600101906101ff565b50505050955084805480602002602001604051908101604052809291908181526020015f905b82821015610375578382905f5260205f200180546102ea906108d9565b80601f0160208091040260200160405190810160405280929190818152602001828054610316906108d9565b80156103615780601f1061033857610100808354040283529160200191610361565b820191905f5260205f20905b81548152906001019060200180831161034457829003601f168201915b5050505050815260200190600101906102cd565b505050509450975097509750975097509750975097509091929394959697565b801515600560029054906101000a900460ff161515036103ea576040517f08c379a00000000000000000000000000000000000000000000000000000000081526004016103e19061088e565b60405180910390fd5b80600560026101000a81548160ff02191690831515021790555050565b8060015f6101000a81548173ffffffffffffffffffffffffffffffffffffffff021916908373ffffffffffffffffffffffffffffffffffffffff1602179055505f8054906101000a900473ffffffffffffffffffffffffffffffffffffffff1673ffffffffffffffffffffffffffffffffffffffff168173ffffffffffffffffffffffffffffffffffffffff167f1fceffeeb023eb0adeba901d55c274290298e737e7e9b57ef93f9c86594b006460405160405180910390a350565b801515600560019054906101000a900460ff16151503610518576040517f08c379a000000000000000000000000000000000000000000000000000000000815260040161050f9061088e565b60405180910390fd5b80600560016101000a81548160ff02191690831515021790555050565b5f80fd5b5f8115159050919050565b61054d81610539565b8114610557575f80fd5b50565b5f8135905061056881610544565b92915050565b5f6020828403121561058357610582610535565b5b5f6105908482850161055a565b91505092915050565b5f73ffffffffffffffffffffffffffffffffffffffff82169050919050565b5f6105c282610599565b9050919050565b6105d2816105b8565b82525050565b5f81519050919050565b5f82825260208201905092915050565b5f819050602082019050919050565b5f81519050919050565b5f82825260208201905092915050565b5f5b8381101561063857808201518184015260208101905061061d565b5f8484015250505050565b5f601f19601f8301169050919050565b5f61065d82610601565b610667818561060b565b935061067781856020860161061b565b61068081610643565b840191505092915050565b5f6106968383610653565b905092915050565b5f602082019050919050565b5f6106b4826105d8565b6106be81856105e2565b9350836020820285016106d0856105f2565b805f5b8581101561070b57848403895281516106ec858261068b565b94506106f78361069e565b925060208a019950506001810190506106d3565b50829750879550505050505092915050565b5f819050919050565b61072f8161071d565b82525050565b61073e81610539565b82525050565b5f610100820190506107585f83018b6105c9565b610765602083018a6105c9565b818103604083015261077781896106aa565b9050818103606083015261078b81886106aa565b905061079a6080830187610726565b6107a760a0830186610735565b6107b460c0830185610735565b6107c160e0830184610735565b9998505050505050505050565b5f6107d882610599565b9050919050565b6107e8816107ce565b81146107f2575f80fd5b50565b5f81359050610803816107df565b92915050565b5f6020828403121561081e5761081d610535565b5b5f61082b848285016107f5565b91505092915050565b5f82825260208201905092915050565b7f536f6d65206572726f72206f63637572726564210000000000000000000000005f82015250565b5f610878601483610834565b915061088382610844565b602082019050919050565b5f6020820190508181035f8301526108a58161086c565b9050919050565b7f4e487b71000000000000000000000000000000000000000000000000000000005f52602260045260245ffd5b5f60028204905060018216806108f057607f821691505b602082108103610903576109026108ac565b5b5091905056fea2646970667358221220320ea9b530a2fa738a066431b152d20b769428793c1bfbf931c835665c86dc5f64736f6c63430008150033",
  "immutableReferences": {},
  "source": "// SPDX-License-Identifier: MIT\r\npragma solidity >=0.8.15;\r\npragma experimental ABIEncoderV2;\r\n\r\ncontract Ride {\r\n\r\n    address payable riderAddr;\r\n    address payable driverAddr;\r\n    string[] fromAddr;\r\n    string[] toAddr;\r\n    bytes32 amount;\r\n    bool complete;\r\n    bool confirmedByRider;\r\n    bool confirmedByDriver;\r\n    \r\n    event UpdateConfirmationEvent(address payable indexed _driverAddr, address payable indexed _riderAddr);\r\n\r\n    \r\n    constructor(address payable _riderAddr, address payable _driverAddr, string[] memory _fromAddr, string[] memory _toAddr, bytes32 _amount)  {\r\n        riderAddr = _riderAddr;\r\n        driverAddr = _driverAddr;\r\n        fromAddr = _fromAddr;\r\n        toAddr = _toAddr;\r\n        amount = _amount;\r\n        complete = false;\r\n        confirmedByRider = false;\r\n        confirmedByDriver = false;\r\n    }\r\n    \r\n    function getRideInfo() view public returns(address, address, string[] memory, string[] memory, bytes32, bool, bool, bool) {\r\n        return (riderAddr, driverAddr, fromAddr, toAddr, amount, complete, confirmedByRider, confirmedByDriver);\r\n    }\r\n    \r\n    function updateDriverAddress(address payable _driverAddr) public {\r\n        driverAddr = _driverAddr;\r\n        emit UpdateConfirmationEvent(_driverAddr, riderAddr);\r\n    }\r\n    \r\n    function updateRiderConfirmation(bool _status) public {\r\n        require(confirmedByRider != _status, 'Some error occurred!');\r\n        confirmedByRider = _status;\r\n    }\r\n    \r\n    function updateDriverConfirmation(bool _status) public {\r\n        require(confirmedByDriver != _status, 'Some error occurred!');\r\n        confirmedByDriver = _status;\r\n    }\r\n    \r\n    function updateRideComplete(bool _complete) public {\r\n        require(complete != _complete, 'Some error occurred!');\r\n        complete = _complete;\r\n    }\r\n}",
  "sourcePath": "C:\\Users\\RUTUJA\\Downloads\\Aaryan Parmar -20231023T095125Z-001\\Aaryan Parmar\\contracts\\Ride.sol",
  "compiler": {
    "name": "solc",
    "version": "0.8.21+commit.d9974bed.Emscripten.clang"
  },
  "schemaVersion": "3.4.16",
  "updatedAt": "2023-10-24T06:09:14.893Z",
  "devdoc": {
    "kind": "dev",
    "methods": {},
    "version": 1
  },
  "userdoc": {
    "kind": "user",
    "methods": {},
    "version": 1
  }
}