{
  "contractName": "RideManager",
  "abi": [
    {
      "inputs": [],
      "stateMutability": "nonpayable",
      "type": "constructor"
    },
    {
      "anonymous": false,
      "inputs": [
        {
          "indexed": true,
          "internalType": "address",
          "name": "_address",
          "type": "address"
        },
        {
          "indexed": false,
          "internalType": "bytes32",
          "name": "name",
          "type": "bytes32"
        }
      ],
      "name": "DriverRegister",
      "type": "event"
    },
    {
      "anonymous": false,
      "inputs": [
        {
          "indexed": true,
          "internalType": "address",
          "name": "_address",
          "type": "address"
        },
        {
          "indexed": false,
          "internalType": "bytes32",
          "name": "name",
          "type": "bytes32"
        }
      ],
      "name": "RiderRegister",
      "type": "event"
    },
    {
      "anonymous": false,
      "inputs": [
        {
          "indexed": false,
          "internalType": "address payable",
          "name": "_riderAddr",
          "type": "address"
        },
        {
          "indexed": false,
          "internalType": "address payable",
          "name": "_driverAddr",
          "type": "address"
        },
        {
          "indexed": false,
          "internalType": "address",
          "name": "rideAddr",
          "type": "address"
        }
      ],
      "name": "requestDriverEvent",
      "type": "event"
    },
    {
      "inputs": [
        {
          "internalType": "address",
          "name": "",
          "type": "address"
        }
      ],
      "name": "driversMapping",
      "outputs": [
        {
          "internalType": "bytes32",
          "name": "name",
          "type": "bytes32"
        },
        {
          "internalType": "bytes32",
          "name": "contact",
          "type": "bytes32"
        },
        {
          "internalType": "bytes32",
          "name": "email",
          "type": "bytes32"
        },
        {
          "internalType": "bytes32",
          "name": "carNo",
          "type": "bytes32"
        },
        {
          "internalType": "uint256",
          "name": "noOfSeats",
          "type": "uint256"
        },
        {
          "internalType": "uint256",
          "name": "rating",
          "type": "uint256"
        },
        {
          "internalType": "enum RideManager.roles",
          "name": "role",
          "type": "uint8"
        },
        {
          "internalType": "enum RideManager.currentStatus",
          "name": "status",
          "type": "uint8"
        },
        {
          "internalType": "address payable",
          "name": "driverAddr",
          "type": "address"
        }
      ],
      "stateMutability": "view",
      "type": "function"
    },
    {
      "inputs": [
        {
          "internalType": "address",
          "name": "",
          "type": "address"
        }
      ],
      "name": "ridersMapping",
      "outputs": [
        {
          "internalType": "bytes32",
          "name": "name",
          "type": "bytes32"
        },
        {
          "internalType": "bytes32",
          "name": "contact",
          "type": "bytes32"
        },
        {
          "internalType": "bytes32",
          "name": "email",
          "type": "bytes32"
        },
        {
          "internalType": "enum RideManager.roles",
          "name": "role",
          "type": "uint8"
        },
        {
          "internalType": "address payable",
          "name": "riderAddr",
          "type": "address"
        }
      ],
      "stateMutability": "view",
      "type": "function"
    },
    {
      "inputs": [
        {
          "internalType": "bytes32",
          "name": "_name",
          "type": "bytes32"
        },
        {
          "internalType": "bytes32",
          "name": "_contact",
          "type": "bytes32"
        },
        {
          "internalType": "bytes32",
          "name": "_email",
          "type": "bytes32"
        },
        {
          "internalType": "uint256",
          "name": "_role",
          "type": "uint256"
        },
        {
          "internalType": "address payable",
          "name": "_riderAddr",
          "type": "address"
        }
      ],
      "name": "registerRider",
      "outputs": [],
      "stateMutability": "nonpayable",
      "type": "function"
    },
    {
      "inputs": [
        {
          "internalType": "address payable",
          "name": "_riderAddr",
          "type": "address"
        }
      ],
      "name": "getRiderInfo",
      "outputs": [
        {
          "components": [
            {
              "internalType": "bytes32",
              "name": "name",
              "type": "bytes32"
            },
            {
              "internalType": "bytes32",
              "name": "contact",
              "type": "bytes32"
            },
            {
              "internalType": "bytes32",
              "name": "email",
              "type": "bytes32"
            },
            {
              "internalType": "enum RideManager.roles",
              "name": "role",
              "type": "uint8"
            },
            {
              "internalType": "address payable",
              "name": "riderAddr",
              "type": "address"
            },
            {
              "internalType": "address[]",
              "name": "rides",
              "type": "address[]"
            }
          ],
          "internalType": "struct RideManager.riderStruct",
          "name": "_riderStruct",
          "type": "tuple"
        }
      ],
      "stateMutability": "view",
      "type": "function"
    },
    {
      "inputs": [
        {
          "internalType": "address payable",
          "name": "_riderAddr",
          "type": "address"
        }
      ],
      "name": "cancelRide",
      "outputs": [
        {
          "internalType": "bool",
          "name": "",
          "type": "bool"
        }
      ],
      "stateMutability": "nonpayable",
      "type": "function"
    },
    {
      "inputs": [
        {
          "internalType": "address payable",
          "name": "_driverAddr",
          "type": "address"
        },
        {
          "internalType": "uint256",
          "name": "_rating",
          "type": "uint256"
        }
      ],
      "name": "updateDriverRating",
      "outputs": [],
      "stateMutability": "nonpayable",
      "type": "function"
    },
    {
      "inputs": [
        {
          "internalType": "bytes32",
          "name": "_name",
          "type": "bytes32"
        },
        {
          "internalType": "bytes32",
          "name": "_contact",
          "type": "bytes32"
        },
        {
          "internalType": "bytes32",
          "name": "_email",
          "type": "bytes32"
        },
        {
          "internalType": "bytes32",
          "name": "_carNo",
          "type": "bytes32"
        },
        {
          "internalType": "uint256",
          "name": "_seats",
          "type": "uint256"
        },
        {
          "internalType": "uint256",
          "name": "_role",
          "type": "uint256"
        },
        {
          "internalType": "address payable",
          "name": "_driverAddr",
          "type": "address"
        }
      ],
      "name": "registerDriver",
      "outputs": [],
      "stateMutability": "nonpayable",
      "type": "function"
    },
    {
      "inputs": [
        {
          "internalType": "address payable",
          "name": "_driverAddr",
          "type": "address"
        }
      ],
      "name": "getDriverInfo",
      "outputs": [
        {
          "components": [
            {
              "internalType": "bytes32",
              "name": "name",
              "type": "bytes32"
            },
            {
              "internalType": "bytes32",
              "name": "contact",
              "type": "bytes32"
            },
            {
              "internalType": "bytes32",
              "name": "email",
              "type": "bytes32"
            },
            {
              "internalType": "bytes32",
              "name": "carNo",
              "type": "bytes32"
            },
            {
              "internalType": "uint256",
              "name": "noOfSeats",
              "type": "uint256"
            },
            {
              "internalType": "uint256",
              "name": "rating",
              "type": "uint256"
            },
            {
              "internalType": "enum RideManager.roles",
              "name": "role",
              "type": "uint8"
            },
            {
              "internalType": "enum RideManager.currentStatus",
              "name": "status",
              "type": "uint8"
            },
            {
              "internalType": "address payable",
              "name": "driverAddr",
              "type": "address"
            },
            {
              "internalType": "address[]",
              "name": "rides",
              "type": "address[]"
            }
          ],
          "internalType": "struct RideManager.driverStruct",
          "name": "_driverStruct",
          "type": "tuple"
        }
      ],
      "stateMutability": "view",
      "type": "function"
    },
    {
      "inputs": [
        {
          "internalType": "address payable",
          "name": "_driverAddr",
          "type": "address"
        },
        {
          "internalType": "uint256",
          "name": "_status",
          "type": "uint256"
        }
      ],
      "name": "updateDriverStatus",
      "outputs": [],
      "stateMutability": "nonpayable",
      "type": "function"
    },
    {
      "inputs": [
        {
          "internalType": "address",
          "name": "_driverAddr",
          "type": "address"
        },
        {
          "internalType": "address",
          "name": "_rideAddr",
          "type": "address"
        }
      ],
      "name": "updateRideInformation",
      "outputs": [],
      "stateMutability": "nonpayable",
      "type": "function"
    },
    {
      "inputs": [
        {
          "internalType": "address payable",
          "name": "_riderAddr",
          "type": "address"
        },
        {
          "internalType": "string[]",
          "name": "_fromAddr",
          "type": "string[]"
        },
        {
          "internalType": "string[]",
          "name": "_toAddr",
          "type": "string[]"
        },
        {
          "internalType": "bytes32",
          "name": "_amount",
          "type": "bytes32"
        }
      ],
      "name": "requestRide",
      "outputs": [
        {
          "internalType": "address",
          "name": "",
          "type": "address"
        }
      ],
      "stateMutability": "nonpayable",
      "type": "function"
    },
    {
      "inputs": [],
      "name": "returnDriversAvailable",
      "outputs": [
        {
          "internalType": "address[]",
          "name": "",
          "type": "address[]"
        }
      ],
      "stateMutability": "view",
      "type": "function"
    },
    {
      "inputs": [
        {
          "internalType": "address payable",
          "name": "_riderAddr",
          "type": "address"
        },
        {
          "internalType": "address payable",
          "name": "_driverAddr",
          "type": "address"
        },
        {
          "internalType": "address",
          "name": "_rideAddr",
          "type": "address"
        }
      ],
      "name": "requestDriver",
      "outputs": [],
      "stateMutability": "nonpayable",
      "type": "function"
    }
  ],
  "bytecode": "0x608060405234801561000f575f80fd5b506136098061001d5f395ff3fe608060405234801562000010575f80fd5b5060043610620000df575f3560e01c806353437eac11620000975780638813f641116200006d5780638813f6411462000265578063b9a55201146200029f578063ea1d922514620002bf578063f3100ed814620002f557620000df565b806353437eac14620001e757806356b863bc146200020757806372f20719146200024557620000df565b8062d1b48c14620000e357806307ffc9a11462000105578063213d36b91462000125578063219a7f27146200015b5780632ede948e14620001915780634b1d015414620001b1575b5f80fd5b620000ed62000315565b604051620000fc91906200146f565b60405180910390f35b6200012360048036038101906200011d919062001554565b620003a1565b005b6200014360048036038101906200013d919062001852565b620007e8565b60405162000152919062001910565b60405180910390f35b6200017960048036038101906200017391906200192b565b620008d4565b60405162000188919062001bbc565b60405180910390f35b620001af6004803603810190620001a9919062001bde565b62000acd565b005b620001cf6004803603810190620001c991906200192b565b62000d63565b604051620001de919062001c7e565b60405180910390f35b620002056004803603810190620001ff919062001c99565b62000e42565b005b6200022560048036038101906200021f919062001d0d565b62000ec6565b6040516200023c9998979695949392919062001d92565b60405180910390f35b6200026360048036038101906200025d919062001e2f565b62000f49565b005b6200028360048036038101906200027d919062001d0d565b62000f8b565b6040516200029695949392919062001e88565b60405180910390f35b620002bd6004803603810190620002b7919062001c99565b62000fe9565b005b620002dd6004803603810190620002d791906200192b565b62001032565b604051620002ec919062001f75565b60405180910390f35b6200031360048036038101906200030d919062001f97565b620011cb565b005b60605f8054806020026020016040519081016040528092919081815260200182805480156200039757602002820191905f5260205f20905b815f9054906101000a900473ffffffffffffffffffffffffffffffffffffffff1673ffffffffffffffffffffffffffffffffffffffff16815260200190600101908083116200034d575b5050505050905090565b803373ffffffffffffffffffffffffffffffffffffffff168173ffffffffffffffffffffffffffffffffffffffff161462000413576040517f08c379a00000000000000000000000000000000000000000000000000000000081526004016200040a906200203a565b60405180910390fd5b8760025f8473ffffffffffffffffffffffffffffffffffffffff1673ffffffffffffffffffffffffffffffffffffffff1681526020019081526020015f205f01819055508660025f8473ffffffffffffffffffffffffffffffffffffffff1673ffffffffffffffffffffffffffffffffffffffff1681526020019081526020015f20600101819055508560025f8473ffffffffffffffffffffffffffffffffffffffff1673ffffffffffffffffffffffffffffffffffffffff1681526020019081526020015f20600201819055508460025f8473ffffffffffffffffffffffffffffffffffffffff1673ffffffffffffffffffffffffffffffffffffffff1681526020019081526020015f20600301819055508360025f8473ffffffffffffffffffffffffffffffffffffffff1673ffffffffffffffffffffffffffffffffffffffff1681526020019081526020015f2060040181905550600560025f8473ffffffffffffffffffffffffffffffffffffffff1673ffffffffffffffffffffffffffffffffffffffff1681526020019081526020015f20600501819055505f6001811115620005c757620005c66200197d565b5b60025f8473ffffffffffffffffffffffffffffffffffffffff1673ffffffffffffffffffffffffffffffffffffffff1681526020019081526020015f2060060160016101000a81548160ff021916908360018111156200062c576200062b6200197d565b5b02179055508260018111156200064757620006466200197d565b5b60025f8473ffffffffffffffffffffffffffffffffffffffff1673ffffffffffffffffffffffffffffffffffffffff1681526020019081526020015f206006015f6101000a81548160ff02191690836001811115620006ab57620006aa6200197d565b5b02179055508160025f8473ffffffffffffffffffffffffffffffffffffffff1673ffffffffffffffffffffffffffffffffffffffff1681526020019081526020015f2060060160026101000a81548173ffffffffffffffffffffffffffffffffffffffff021916908373ffffffffffffffffffffffffffffffffffffffff1602179055505f82908060018154018082558091505060019003905f5260205f20015f9091909190916101000a81548173ffffffffffffffffffffffffffffffffffffffff021916908373ffffffffffffffffffffffffffffffffffffffff1602179055508173ffffffffffffffffffffffffffffffffffffffff167fe6f787aa1ef51ebecae17b89bb1cc8e91b8d2ff46b508e1ac5d8268b9795490589604051620007d691906200205a565b60405180910390a25050505050505050565b5f808586868686604051620007fd906200126d565b6200080d959493929190620021c2565b604051809103905ff08015801562000827573d5f803e3d5ffd5b50905060015f8773ffffffffffffffffffffffffffffffffffffffff1673ffffffffffffffffffffffffffffffffffffffff1681526020019081526020015f2060040181908060018154018082558091505060019003905f5260205f20015f9091909190916101000a81548173ffffffffffffffffffffffffffffffffffffffff021916908373ffffffffffffffffffffffffffffffffffffffff16021790555080915050949350505050565b620008de6200127b565b60025f8373ffffffffffffffffffffffffffffffffffffffff1673ffffffffffffffffffffffffffffffffffffffff1681526020019081526020015f20604051806101400160405290815f82015481526020016001820154815260200160028201548152602001600382015481526020016004820154815260200160058201548152602001600682015f9054906101000a900460ff1660018111156200098957620009886200197d565b5b60018111156200099e576200099d6200197d565b5b81526020016006820160019054906101000a900460ff166001811115620009ca57620009c96200197d565b5b6001811115620009df57620009de6200197d565b5b81526020016006820160029054906101000a900473ffffffffffffffffffffffffffffffffffffffff1673ffffffffffffffffffffffffffffffffffffffff1673ffffffffffffffffffffffffffffffffffffffff1681526020016007820180548060200260200160405190810160405280929190818152602001828054801562000abd57602002820191905f5260205f20905b815f9054906101000a900473ffffffffffffffffffffffffffffffffffffffff1673ffffffffffffffffffffffffffffffffffffffff168152602001906001019080831162000a73575b5050505050815250509050919050565b803373ffffffffffffffffffffffffffffffffffffffff168173ffffffffffffffffffffffffffffffffffffffff161462000b3f576040517f08c379a000000000000000000000000000000000000000000000000000000000815260040162000b369062002279565b60405180910390fd5b8560015f8473ffffffffffffffffffffffffffffffffffffffff1673ffffffffffffffffffffffffffffffffffffffff1681526020019081526020015f205f01819055508460015f8473ffffffffffffffffffffffffffffffffffffffff1673ffffffffffffffffffffffffffffffffffffffff1681526020019081526020015f20600101819055508360015f8473ffffffffffffffffffffffffffffffffffffffff1673ffffffffffffffffffffffffffffffffffffffff1681526020019081526020015f206002018190555082600181111562000c235762000c226200197d565b5b60015f8473ffffffffffffffffffffffffffffffffffffffff1673ffffffffffffffffffffffffffffffffffffffff1681526020019081526020015f206003015f6101000a81548160ff0219169083600181111562000c875762000c866200197d565b5b02179055508160015f8473ffffffffffffffffffffffffffffffffffffffff1673ffffffffffffffffffffffffffffffffffffffff1681526020019081526020015f2060030160016101000a81548173ffffffffffffffffffffffffffffffffffffffff021916908373ffffffffffffffffffffffffffffffffffffffff1602179055508173ffffffffffffffffffffffffffffffffffffffff167f116f04dd86285f4d2f708f1984c5fc0bca25d762fa06fd9defe4c22f6f4aa36b8760405162000d5391906200205a565b60405180910390a2505050505050565b5f8060015f8473ffffffffffffffffffffffffffffffffffffffff1673ffffffffffffffffffffffffffffffffffffffff1681526020019081526020015f2060040180549050905060015f8473ffffffffffffffffffffffffffffffffffffffff1673ffffffffffffffffffffffffffffffffffffffff1681526020019081526020015f2060040160018262000dfa9190620022c6565b8154811062000e0e5762000e0d62002300565b5b905f5260205f20015f6101000a81549073ffffffffffffffffffffffffffffffffffffffff02191690556001915050919050565b80600181111562000e585762000e576200197d565b5b60025f8473ffffffffffffffffffffffffffffffffffffffff1673ffffffffffffffffffffffffffffffffffffffff1681526020019081526020015f2060060160016101000a81548160ff0219169083600181111562000ebd5762000ebc6200197d565b5b02179055505050565b6002602052805f5260405f205f91509050805f015490806001015490806002015490806003015490806004015490806005015490806006015f9054906101000a900460ff16908060060160019054906101000a900460ff16908060060160029054906101000a900473ffffffffffffffffffffffffffffffffffffffff16905089565b7f0bd3effa8c6dfdb23eaf76019fccdd9aa8a4ad537034a8b59ffda48c4ccc5e9d83838360405162000f7e939291906200232d565b60405180910390a1505050565b6001602052805f5260405f205f91509050805f015490806001015490806002015490806003015f9054906101000a900460ff16908060030160019054906101000a900473ffffffffffffffffffffffffffffffffffffffff16905085565b8060025f8473ffffffffffffffffffffffffffffffffffffffff1673ffffffffffffffffffffffffffffffffffffffff1681526020019081526020015f20600501819055505050565b6200103c62001311565b60015f8373ffffffffffffffffffffffffffffffffffffffff1673ffffffffffffffffffffffffffffffffffffffff1681526020019081526020015f206040518060c00160405290815f82015481526020016001820154815260200160028201548152602001600382015f9054906101000a900460ff166001811115620010c857620010c76200197d565b5b6001811115620010dd57620010dc6200197d565b5b81526020016003820160019054906101000a900473ffffffffffffffffffffffffffffffffffffffff1673ffffffffffffffffffffffffffffffffffffffff1673ffffffffffffffffffffffffffffffffffffffff16815260200160048201805480602002602001604051908101604052809291908181526020018280548015620011bb57602002820191905f5260205f20905b815f9054906101000a900473ffffffffffffffffffffffffffffffffffffffff1673ffffffffffffffffffffffffffffffffffffffff168152602001906001019080831162001171575b5050505050815250509050919050565b60015f8373ffffffffffffffffffffffffffffffffffffffff1673ffffffffffffffffffffffffffffffffffffffff1681526020019081526020015f2060040181908060018154018082558091505060019003905f5260205f20015f9091909190916101000a81548173ffffffffffffffffffffffffffffffffffffffff021916908373ffffffffffffffffffffffffffffffffffffffff1602179055505050565b61126b806200236983390190565b6040518061014001604052805f80191681526020015f80191681526020015f80191681526020015f80191681526020015f81526020015f81526020015f6001811115620012cd57620012cc6200197d565b5b81526020015f6001811115620012e857620012e76200197d565b5b81526020015f73ffffffffffffffffffffffffffffffffffffffff168152602001606081525090565b6040518060c001604052805f80191681526020015f80191681526020015f80191681526020015f60018111156200134d576200134c6200197d565b5b81526020015f73ffffffffffffffffffffffffffffffffffffffff168152602001606081525090565b5f81519050919050565b5f82825260208201905092915050565b5f819050602082019050919050565b5f73ffffffffffffffffffffffffffffffffffffffff82169050919050565b5f620013ca826200139f565b9050919050565b620013dc81620013be565b82525050565b5f620013ef8383620013d1565b60208301905092915050565b5f602082019050919050565b5f620014138262001376565b6200141f818562001380565b93506200142c8362001390565b805f5b8381101562001462578151620014468882620013e2565b97506200145383620013fb565b9250506001810190506200142f565b5085935050505092915050565b5f6020820190508181035f83015262001489818462001407565b905092915050565b5f604051905090565b5f80fd5b5f80fd5b5f819050919050565b620014b681620014a2565b8114620014c1575f80fd5b50565b5f81359050620014d481620014ab565b92915050565b5f819050919050565b620014ee81620014da565b8114620014f9575f80fd5b50565b5f813590506200150c81620014e3565b92915050565b5f6200151e826200139f565b9050919050565b620015308162001512565b81146200153b575f80fd5b50565b5f813590506200154e8162001525565b92915050565b5f805f805f805f60e0888a0312156200157257620015716200149a565b5b5f620015818a828b01620014c4565b9750506020620015948a828b01620014c4565b9650506040620015a78a828b01620014c4565b9550506060620015ba8a828b01620014c4565b9450506080620015cd8a828b01620014fc565b93505060a0620015e08a828b01620014fc565b92505060c0620015f38a828b016200153e565b91505092959891949750929550565b5f80fd5b5f601f19601f8301169050919050565b7f4e487b71000000000000000000000000000000000000000000000000000000005f52604160045260245ffd5b6200164e8262001606565b810181811067ffffffffffffffff8211171562001670576200166f62001616565b5b80604052505050565b5f6200168462001491565b905062001692828262001643565b919050565b5f67ffffffffffffffff821115620016b457620016b362001616565b5b602082029050602081019050919050565b5f80fd5b5f80fd5b5f67ffffffffffffffff821115620016ea57620016e962001616565b5b620016f58262001606565b9050602081019050919050565b828183375f83830152505050565b5f620017266200172084620016cd565b62001679565b905082815260208101848484011115620017455762001744620016c9565b5b6200175284828562001702565b509392505050565b5f82601f83011262001771576200177062001602565b5b81356200178384826020860162001710565b91505092915050565b5f620017a26200179c8462001697565b62001679565b90508083825260208201905060208402830185811115620017c857620017c7620016c5565b5b835b818110156200181657803567ffffffffffffffff811115620017f157620017f062001602565b5b8086016200180089826200175a565b85526020850194505050602081019050620017ca565b5050509392505050565b5f82601f83011262001837576200183662001602565b5b8135620018498482602086016200178c565b91505092915050565b5f805f80608085870312156200186d576200186c6200149a565b5b5f6200187c878288016200153e565b945050602085013567ffffffffffffffff811115620018a0576200189f6200149e565b5b620018ae8782880162001820565b935050604085013567ffffffffffffffff811115620018d257620018d16200149e565b5b620018e08782880162001820565b9250506060620018f387828801620014c4565b91505092959194509250565b6200190a81620013be565b82525050565b5f602082019050620019255f830184620018ff565b92915050565b5f602082840312156200194357620019426200149a565b5b5f62001952848285016200153e565b91505092915050565b6200196681620014a2565b82525050565b6200197781620014da565b82525050565b7f4e487b71000000000000000000000000000000000000000000000000000000005f52602160045260245ffd5b60028110620019be57620019bd6200197d565b5b50565b5f819050620019d082620019aa565b919050565b5f620019e182620019c1565b9050919050565b620019f381620019d5565b82525050565b6002811062001a0d5762001a0c6200197d565b5b50565b5f81905062001a1f82620019f9565b919050565b5f62001a308262001a10565b9050919050565b62001a428162001a24565b82525050565b62001a538162001512565b82525050565b5f82825260208201905092915050565b5f62001a758262001376565b62001a81818562001a59565b935062001a8e8362001390565b805f5b8381101562001ac457815162001aa88882620013e2565b975062001ab583620013fb565b92505060018101905062001a91565b5085935050505092915050565b5f61014083015f83015162001ae95f8601826200195b565b50602083015162001afe60208601826200195b565b50604083015162001b1360408601826200195b565b50606083015162001b2860608601826200195b565b50608083015162001b3d60808601826200196c565b5060a083015162001b5260a08601826200196c565b5060c083015162001b6760c0860182620019e8565b5060e083015162001b7c60e086018262001a37565b5061010083015162001b9361010086018262001a48565b5061012083015184820361012086015262001baf828262001a69565b9150508091505092915050565b5f6020820190508181035f83015262001bd6818462001ad1565b905092915050565b5f805f805f60a0868803121562001bfa5762001bf96200149a565b5b5f62001c0988828901620014c4565b955050602062001c1c88828901620014c4565b945050604062001c2f88828901620014c4565b935050606062001c4288828901620014fc565b925050608062001c55888289016200153e565b9150509295509295909350565b5f8115159050919050565b62001c788162001c62565b82525050565b5f60208201905062001c935f83018462001c6d565b92915050565b5f806040838503121562001cb25762001cb16200149a565b5b5f62001cc1858286016200153e565b925050602062001cd485828601620014fc565b9150509250929050565b62001ce981620013be565b811462001cf4575f80fd5b50565b5f8135905062001d078162001cde565b92915050565b5f6020828403121562001d255762001d246200149a565b5b5f62001d348482850162001cf7565b91505092915050565b62001d4881620014a2565b82525050565b62001d5981620014da565b82525050565b62001d6a81620019d5565b82525050565b62001d7b8162001a24565b82525050565b62001d8c8162001512565b82525050565b5f6101208201905062001da85f83018c62001d3d565b62001db7602083018b62001d3d565b62001dc6604083018a62001d3d565b62001dd5606083018962001d3d565b62001de4608083018862001d4e565b62001df360a083018762001d4e565b62001e0260c083018662001d5f565b62001e1160e083018562001d70565b62001e2161010083018462001d81565b9a9950505050505050505050565b5f805f6060848603121562001e495762001e486200149a565b5b5f62001e58868287016200153e565b935050602062001e6b868287016200153e565b925050604062001e7e8682870162001cf7565b9150509250925092565b5f60a08201905062001e9d5f83018862001d3d565b62001eac602083018762001d3d565b62001ebb604083018662001d3d565b62001eca606083018562001d5f565b62001ed9608083018462001d81565b9695505050505050565b5f60c083015f83015162001efa5f8601826200195b565b50602083015162001f0f60208601826200195b565b50604083015162001f2460408601826200195b565b50606083015162001f396060860182620019e8565b50608083015162001f4e608086018262001a48565b5060a083015184820360a086015262001f68828262001a69565b9150508091505092915050565b5f6020820190508181035f83015262001f8f818462001ee3565b905092915050565b5f806040838503121562001fb05762001faf6200149a565b5b5f62001fbf8582860162001cf7565b925050602062001fd28582860162001cf7565b9150509250929050565b5f82825260208201905092915050565b7f43616e6e6f7420726567697374657220647269766572000000000000000000005f82015250565b5f6200202260168362001fdc565b91506200202f8262001fec565b602082019050919050565b5f6020820190508181035f830152620020538162002014565b9050919050565b5f6020820190506200206f5f83018462001d3d565b92915050565b5f81519050919050565b5f82825260208201905092915050565b5f819050602082019050919050565b5f81519050919050565b5f82825260208201905092915050565b5f5b83811015620020d7578082015181840152602081019050620020ba565b5f8484015250505050565b5f620020ee826200209e565b620020fa8185620020a8565b93506200210c818560208601620020b8565b620021178162001606565b840191505092915050565b5f6200212f8383620020e2565b905092915050565b5f602082019050919050565b5f6200214f8262002075565b6200215b81856200207f565b9350836020820285016200216f856200208f565b805f5b85811015620021b057848403895281516200218e858262002122565b94506200219b8362002137565b925060208a0199505060018101905062002172565b50829750879550505050505092915050565b5f60a082019050620021d75f83018862001d81565b620021e6602083018762001d81565b8181036040830152620021fa818662002143565b9050818103606083015262002210818562002143565b905062002221608083018462001d3d565b9695505050505050565b7f43616e6e6f7420726567697374657220726964657200000000000000000000005f82015250565b5f6200226160158362001fdc565b91506200226e826200222b565b602082019050919050565b5f6020820190508181035f830152620022928162002253565b9050919050565b7f4e487b71000000000000000000000000000000000000000000000000000000005f52601160045260245ffd5b5f620022d282620014da565b9150620022df83620014da565b9250828203905081811115620022fa57620022f962002299565b5b92915050565b7f4e487b71000000000000000000000000000000000000000000000000000000005f52603260045260245ffd5b5f606082019050620023425f83018662001d81565b62002351602083018562001d81565b620023606040830184620018ff565b94935050505056fe608060405234801562000010575f80fd5b506040516200126b3803806200126b833981810160405281019062000036919062000541565b845f806101000a81548173ffffffffffffffffffffffffffffffffffffffff021916908373ffffffffffffffffffffffffffffffffffffffff1602179055508360015f6101000a81548173ffffffffffffffffffffffffffffffffffffffff021916908373ffffffffffffffffffffffffffffffffffffffff1602179055508260029080519060200190620000cd92919062000146565b508160039080519060200190620000e692919062000146565b50806004819055505f60055f6101000a81548160ff0219169083151502179055505f600560016101000a81548160ff0219169083151502179055505f600560026101000a81548160ff02191690831515021790555050505050506200091e565b828054828255905f5260205f2090810192821562000191579160200282015b82811115620001905782518290816200017f91906200083a565b509160200191906001019062000165565b5b509050620001a09190620001a4565b5090565b5b80821115620001c7575f8181620001bd9190620001cb565b50600101620001a5565b5090565b508054620001d9906200063a565b5f825580601f10620001ec57506200020b565b601f0160209004905f5260205f20908101906200020a91906200020e565b5b50565b5b8082111562000227575f815f9055506001016200020f565b5090565b5f604051905090565b5f80fd5b5f80fd5b5f73ffffffffffffffffffffffffffffffffffffffff82169050919050565b5f62000267826200023c565b9050919050565b62000279816200025b565b811462000284575f80fd5b50565b5f8151905062000297816200026e565b92915050565b5f80fd5b5f601f19601f8301169050919050565b7f4e487b71000000000000000000000000000000000000000000000000000000005f52604160045260245ffd5b620002e982620002a1565b810181811067ffffffffffffffff821117156200030b576200030a620002b1565b5b80604052505050565b5f6200031f6200022b565b90506200032d8282620002de565b919050565b5f67ffffffffffffffff8211156200034f576200034e620002b1565b5b602082029050602081019050919050565b5f80fd5b5f80fd5b5f67ffffffffffffffff821115620003855762000384620002b1565b5b6200039082620002a1565b9050602081019050919050565b5f5b83811015620003bc5780820151818401526020810190506200039f565b5f8484015250505050565b5f620003dd620003d78462000368565b62000314565b905082815260208101848484011115620003fc57620003fb62000364565b5b620004098482856200039d565b509392505050565b5f82601f8301126200042857620004276200029d565b5b81516200043a848260208601620003c7565b91505092915050565b5f62000459620004538462000332565b62000314565b905080838252602082019050602084028301858111156200047f576200047e62000360565b5b835b81811015620004cd57805167ffffffffffffffff811115620004a857620004a76200029d565b5b808601620004b7898262000411565b8552602085019450505060208101905062000481565b5050509392505050565b5f82601f830112620004ee57620004ed6200029d565b5b81516200050084826020860162000443565b91505092915050565b5f819050919050565b6200051d8162000509565b811462000528575f80fd5b50565b5f815190506200053b8162000512565b92915050565b5f805f805f60a086880312156200055d576200055c62000234565b5b5f6200056c8882890162000287565b95505060206200057f8882890162000287565b945050604086015167ffffffffffffffff811115620005a357620005a262000238565b5b620005b188828901620004d7565b935050606086015167ffffffffffffffff811115620005d557620005d462000238565b5b620005e388828901620004d7565b9250506080620005f6888289016200052b565b9150509295509295909350565b5f81519050919050565b7f4e487b71000000000000000000000000000000000000000000000000000000005f52602260045260245ffd5b5f60028204905060018216806200065257607f821691505b6020821081036200066857620006676200060d565b5b50919050565b5f819050815f5260205f209050919050565b5f6020601f8301049050919050565b5f82821b905092915050565b5f60088302620006cc7fffffffffffffffffffffffffffffffffffffffffffffffffffffffffffffffff826200068f565b620006d886836200068f565b95508019841693508086168417925050509392505050565b5f819050919050565b5f819050919050565b5f620007226200071c6200071684620006f0565b620006f9565b620006f0565b9050919050565b5f819050919050565b6200073d8362000702565b620007556200074c8262000729565b8484546200069b565b825550505050565b5f90565b6200076b6200075d565b6200077881848462000732565b505050565b5b818110156200079f57620007935f8262000761565b6001810190506200077e565b5050565b601f821115620007ee57620007b8816200066e565b620007c38462000680565b81016020851015620007d3578190505b620007eb620007e28562000680565b8301826200077d565b50505b505050565b5f82821c905092915050565b5f620008105f1984600802620007f3565b1980831691505092915050565b5f6200082a8383620007ff565b9150826002028217905092915050565b620008458262000603565b67ffffffffffffffff811115620008615762000860620002b1565b5b6200086d82546200063a565b6200087a828285620007a3565b5f60209050601f831160018114620008b0575f84156200089b578287015190505b620008a785826200081d565b86555062000916565b601f198416620008c0866200066e565b5f5b82811015620008e957848901518255600182019150602085019450602081019050620008c2565b8683101562000909578489015162000905601f891682620007ff565b8355505b6001600288020188555050505b505050505050565b61093f806200092c5f395ff3fe608060405234801561000f575f80fd5b5060043610610055575f3560e01c806306ab2e0614610059578063114dba9c14610075578063415f3dc31461009a578063530cce55146100b657806381696320146100d2575b5f80fd5b610073600480360381019061006e919061056e565b6100ee565b005b61007d61015e565b604051610091989796959493929190610744565b60405180910390f35b6100b460048036038101906100af919061056e565b610395565b005b6100d060048036038101906100cb9190610809565b610407565b005b6100ec60048036038101906100e7919061056e565b6104c3565b005b80151560055f9054906101000a900460ff16151503610142576040517f08c379a00000000000000000000000000000000000000000000000000000000081526004016101399061088e565b60405180910390fd5b8060055f6101000a81548160ff02191690831515021790555050565b5f806060805f805f805f8054906101000a900473ffffffffffffffffffffffffffffffffffffffff1660015f9054906101000a900473ffffffffffffffffffffffffffffffffffffffff166002600360045460055f9054906101000a900460ff16600560019054906101000a900460ff16600560029054906101000a900460ff1685805480602002602001604051908101604052809291908181526020015f905b828210156102a7578382905f5260205f2001805461021c906108d9565b80601f0160208091040260200160405190810160405280929190818152602001828054610248906108d9565b80156102935780601f1061026a57610100808354040283529160200191610293565b820191905f5260205f20905b81548152906001019060200180831161027657829003601f168201915b5050505050815260200190600101906101ff565b50505050955084805480602002602001604051908101604052809291908181526020015f905b82821015610375578382905f5260205f200180546102ea906108d9565b80601f0160208091040260200160405190810160405280929190818152602001828054610316906108d9565b80156103615780601f1061033857610100808354040283529160200191610361565b820191905f5260205f20905b81548152906001019060200180831161034457829003601f168201915b5050505050815260200190600101906102cd565b505050509450975097509750975097509750975097509091929394959697565b801515600560029054906101000a900460ff161515036103ea576040517f08c379a00000000000000000000000000000000000000000000000000000000081526004016103e19061088e565b60405180910390fd5b80600560026101000a81548160ff02191690831515021790555050565b8060015f6101000a81548173ffffffffffffffffffffffffffffffffffffffff021916908373ffffffffffffffffffffffffffffffffffffffff1602179055505f8054906101000a900473ffffffffffffffffffffffffffffffffffffffff1673ffffffffffffffffffffffffffffffffffffffff168173ffffffffffffffffffffffffffffffffffffffff167f1fceffeeb023eb0adeba901d55c274290298e737e7e9b57ef93f9c86594b006460405160405180910390a350565b801515600560019054906101000a900460ff16151503610518576040517f08c379a000000000000000000000000000000000000000000000000000000000815260040161050f9061088e565b60405180910390fd5b80600560016101000a81548160ff02191690831515021790555050565b5f80fd5b5f8115159050919050565b61054d81610539565b8114610557575f80fd5b50565b5f8135905061056881610544565b92915050565b5f6020828403121561058357610582610535565b5b5f6105908482850161055a565b91505092915050565b5f73ffffffffffffffffffffffffffffffffffffffff82169050919050565b5f6105c282610599565b9050919050565b6105d2816105b8565b82525050565b5f81519050919050565b5f82825260208201905092915050565b5f819050602082019050919050565b5f81519050919050565b5f82825260208201905092915050565b5f5b8381101561063857808201518184015260208101905061061d565b5f8484015250505050565b5f601f19601f8301169050919050565b5f61065d82610601565b610667818561060b565b935061067781856020860161061b565b61068081610643565b840191505092915050565b5f6106968383610653565b905092915050565b5f602082019050919050565b5f6106b4826105d8565b6106be81856105e2565b9350836020820285016106d0856105f2565b805f5b8581101561070b57848403895281516106ec858261068b565b94506106f78361069e565b925060208a019950506001810190506106d3565b50829750879550505050505092915050565b5f819050919050565b61072f8161071d565b82525050565b61073e81610539565b82525050565b5f610100820190506107585f83018b6105c9565b610765602083018a6105c9565b818103604083015261077781896106aa565b9050818103606083015261078b81886106aa565b905061079a6080830187610726565b6107a760a0830186610735565b6107b460c0830185610735565b6107c160e0830184610735565b9998505050505050505050565b5f6107d882610599565b9050919050565b6107e8816107ce565b81146107f2575f80fd5b50565b5f81359050610803816107df565b92915050565b5f6020828403121561081e5761081d610535565b5b5f61082b848285016107f5565b91505092915050565b5f82825260208201905092915050565b7f536f6d65206572726f72206f63637572726564210000000000000000000000005f82015250565b5f610878601483610834565b915061088382610844565b602082019050919050565b5f6020820190508181035f8301526108a58161086c565b9050919050565b7f4e487b71000000000000000000000000000000000000000000000000000000005f52602260045260245ffd5b5f60028204905060018216806108f057607f821691505b602082108103610903576109026108ac565b5b5091905056fea2646970667358221220320ea9b530a2fa738a066431b152d20b769428793c1bfbf931c835665c86dc5f64736f6c63430008150033a26469706673582212203c0c278f26e8526a30e008be2075a40090b1c6e04387012eb8793c737ca3ff0b64736f6c63430008150033",
  "immutableReferences": {},
  "source": "// SPDX-License-Identifier: MIT\r\npragma solidity >=0.8.15;\r\npragma experimental ABIEncoderV2;\r\n\r\nimport './Ride.sol';\r\n\r\ncontract RideManager {\r\n    \r\n    //// Inits ////\r\n    bytes32 constant NULL = \"\";\r\n    address[] driversArray;\r\n\r\n    //// Enums ////\r\n    enum roles {\r\n        rider,\r\n        driver\r\n    }\r\n    \r\n    enum currentStatus {\r\n        free,\r\n        busy\r\n    }\r\n    \r\n    \r\n    //// Structs ////\r\n    struct riderStruct {\r\n        bytes32 name;\r\n        bytes32 contact;\r\n        bytes32 email;\r\n        roles role;\r\n        address payable riderAddr;\r\n        address[] rides;\r\n    }\r\n    \r\n    \r\n    struct driverStruct {\r\n        bytes32 name;\r\n        bytes32 contact;\r\n        bytes32 email;\r\n        bytes32 carNo;\r\n        uint256 noOfSeats;\r\n        uint256 rating;\r\n        roles role;\r\n        currentStatus status;\r\n        address payable driverAddr; \r\n        address[] rides;\r\n    }\r\n    \r\n    \r\n    //// Mappings ////\r\n    mapping (address => riderStruct) public ridersMapping;\r\n    mapping (address => driverStruct) public driversMapping;\r\n\r\n\r\n    //// Events ////\r\n    event RiderRegister(address indexed _address, bytes32 name);\r\n    event DriverRegister(address indexed _address, bytes32 name);\r\n    event requestDriverEvent(address payable _riderAddr, address payable _driverAddr, address rideAddr);\r\n    \r\n    \r\n    //// Constructor ////\r\n    constructor()  {}\r\n    \r\n    \r\n    //// Modifiers ////\r\n    modifier onlyRider(address payable _riderAddr) {\r\n        require(_riderAddr == msg.sender, \"Cannot register rider\");\r\n        _;\r\n    }\r\n    \r\n    modifier onlyDriver(address payable _driverAddr) {\r\n        require(_driverAddr == msg.sender, \"Cannot register driver\");\r\n        _;\r\n    }\r\n\r\n    \r\n    //// Functions ////\r\n    \r\n    /// Riders ///\r\n    function registerRider(bytes32 _name, bytes32 _contact, bytes32 _email, uint _role, address payable _riderAddr) external onlyRider(_riderAddr) {\r\n        \r\n        ridersMapping[_riderAddr].name = _name;\r\n        ridersMapping[_riderAddr].contact = _contact;\r\n        ridersMapping[_riderAddr].email = _email;\r\n        ridersMapping[_riderAddr].role = roles(_role);\r\n        ridersMapping[_riderAddr].riderAddr = _riderAddr;\r\n        \r\n        emit RiderRegister(_riderAddr, _name);\r\n    }\r\n    \r\n    function getRiderInfo(address payable _riderAddr) external view returns(riderStruct memory _riderStruct) {\r\n        return ridersMapping[_riderAddr];\r\n    }\r\n    \r\n    function cancelRide(address payable _riderAddr) public returns(bool) {\r\n        uint len = ridersMapping[_riderAddr].rides.length;\r\n        delete ridersMapping[_riderAddr].rides[len - 1];\r\n        return true;\r\n    }\r\n    \r\n    function updateDriverRating(address payable _driverAddr, uint256 _rating) external {\r\n        driversMapping[_driverAddr].rating = _rating;\r\n    }\r\n    \r\n    \r\n    /// Drivers ///\r\n\r\n    function registerDriver(bytes32 _name, bytes32 _contact, bytes32 _email, bytes32 _carNo, uint256 _seats, uint _role, address payable _driverAddr) external onlyDriver(_driverAddr) {\r\n        \r\n        driversMapping[_driverAddr].name = _name;\r\n        driversMapping[_driverAddr].contact = _contact;\r\n        driversMapping[_driverAddr].email = _email;\r\n        driversMapping[_driverAddr].carNo = _carNo;\r\n        driversMapping[_driverAddr].noOfSeats = _seats;\r\n        driversMapping[_driverAddr].rating = 5;\r\n        driversMapping[_driverAddr].status = currentStatus(0);\r\n        driversMapping[_driverAddr].role = roles(_role);\r\n        driversMapping[_driverAddr].driverAddr = _driverAddr;\r\n        \r\n        driversArray.push(_driverAddr);\r\n        \r\n        emit DriverRegister(_driverAddr, _name);\r\n    }\r\n    \r\n    function getDriverInfo(address payable _driverAddr) external view returns(driverStruct memory _driverStruct) {\r\n        return driversMapping[_driverAddr];\r\n    }\r\n    \r\n    function updateDriverStatus(address payable _driverAddr, uint _status) external {\r\n        driversMapping[_driverAddr].status = currentStatus(_status);\r\n    }\r\n    \r\n    function updateRideInformation(address _driverAddr, address _rideAddr) external {\r\n        ridersMapping[_driverAddr].rides.push(_rideAddr);\r\n    }\r\n    \r\n    \r\n    /// Main ///\r\n    \r\n    function requestRide(address payable _riderAddr, string[] memory _fromAddr, string[] memory _toAddr, bytes32 _amount) public returns(address){\r\n        Ride ride = new Ride(\r\n            _riderAddr,\r\n            _riderAddr,\r\n            _fromAddr,\r\n            _toAddr,\r\n            _amount\r\n        );\r\n        ridersMapping[_riderAddr].rides.push(address(ride));\r\n        \r\n        return address(ride);\r\n    }\r\n    \r\n    function returnDriversAvailable() external view returns(address[] memory) {\r\n        return driversArray;\r\n    }\r\n    \r\n    function requestDriver(address payable _riderAddr, address payable _driverAddr, address _rideAddr) external {\r\n        emit requestDriverEvent(_riderAddr, _driverAddr, _rideAddr);\r\n    }\r\n}",
  "sourcePath": "C:\\Users\\RUTUJA\\Downloads\\Aaryan Parmar -20231023T095125Z-001\\Aaryan Parmar\\contracts\\RideManager.sol",
  "compiler": {
    "name": "solc",
    "version": "0.8.21+commit.d9974bed.Emscripten.clang"
  },
  "schemaVersion": "3.4.16",
  "updatedAt": "2023-10-24T06:09:14.920Z",
  "devdoc": {
    "kind": "dev",
    "methods": {},
    "version": 1
  },
  "userdoc": {
    "kind": "user",
    "methods": {
      "registerDriver(bytes32,bytes32,bytes32,bytes32,uint256,uint256,address)": {
        "notice": "Drivers ///"
      },
      "registerRider(bytes32,bytes32,bytes32,uint256,address)": {
        "notice": "Riders ///"
      },
      "requestRide(address,string[],string[],bytes32)": {
        "notice": "Main ///"
      }
    },
    "version": 1
  }
}